{
  "_format": "hh-sol-artifact-1",
  "contractName": "GovernanceToken",
  "sourceName": "contracts/GovernanceToken.sol",
  "abi": [
    {
      "inputs": [],
      "stateMutability": "nonpayable",
      "type": "constructor"
    },
    {
      "inputs": [],
      "name": "InvalidShortString",
      "type": "error"
    },
    {
      "inputs": [
        {
          "internalType": "string",
          "name": "str",
          "type": "string"
        }
      ],
      "name": "StringTooLong",
      "type": "error"
    },
    {
      "anonymous": false,
      "inputs": [
        {
          "indexed": true,
          "internalType": "address",
          "name": "owner",
          "type": "address"
        },
        {
          "indexed": true,
          "internalType": "address",
          "name": "spender",
          "type": "address"
        },
        {
          "indexed": false,
          "internalType": "uint256",
          "name": "value",
          "type": "uint256"
        }
      ],
      "name": "Approval",
      "type": "event"
    },
    {
      "anonymous": false,
      "inputs": [
        {
          "indexed": true,
          "internalType": "address",
          "name": "delegator",
          "type": "address"
        },
        {
          "indexed": true,
          "internalType": "address",
          "name": "fromDelegate",
          "type": "address"
        },
        {
          "indexed": true,
          "internalType": "address",
          "name": "toDelegate",
          "type": "address"
        }
      ],
      "name": "DelegateChanged",
      "type": "event"
    },
    {
      "anonymous": false,
      "inputs": [
        {
          "indexed": true,
          "internalType": "address",
          "name": "delegate",
          "type": "address"
        },
        {
          "indexed": false,
          "internalType": "uint256",
          "name": "previousBalance",
          "type": "uint256"
        },
        {
          "indexed": false,
          "internalType": "uint256",
          "name": "newBalance",
          "type": "uint256"
        }
      ],
      "name": "DelegateVotesChanged",
      "type": "event"
    },
    {
      "anonymous": false,
      "inputs": [],
      "name": "EIP712DomainChanged",
      "type": "event"
    },
    {
      "anonymous": false,
      "inputs": [
        {
          "indexed": true,
          "internalType": "address",
          "name": "from",
          "type": "address"
        },
        {
          "indexed": true,
          "internalType": "address",
          "name": "to",
          "type": "address"
        },
        {
          "indexed": false,
          "internalType": "uint256",
          "name": "value",
          "type": "uint256"
        }
      ],
      "name": "Transfer",
      "type": "event"
    },
    {
      "inputs": [],
      "name": "CLOCK_MODE",
      "outputs": [
        {
          "internalType": "string",
          "name": "",
          "type": "string"
        }
      ],
      "stateMutability": "view",
      "type": "function"
    },
    {
      "inputs": [],
      "name": "DOMAIN_SEPARATOR",
      "outputs": [
        {
          "internalType": "bytes32",
          "name": "",
          "type": "bytes32"
        }
      ],
      "stateMutability": "view",
      "type": "function"
    },
    {
      "inputs": [
        {
          "internalType": "address",
          "name": "owner",
          "type": "address"
        },
        {
          "internalType": "address",
          "name": "spender",
          "type": "address"
        }
      ],
      "name": "allowance",
      "outputs": [
        {
          "internalType": "uint256",
          "name": "",
          "type": "uint256"
        }
      ],
      "stateMutability": "view",
      "type": "function"
    },
    {
      "inputs": [
        {
          "internalType": "address",
          "name": "spender",
          "type": "address"
        },
        {
          "internalType": "uint256",
          "name": "amount",
          "type": "uint256"
        }
      ],
      "name": "approve",
      "outputs": [
        {
          "internalType": "bool",
          "name": "",
          "type": "bool"
        }
      ],
      "stateMutability": "nonpayable",
      "type": "function"
    },
    {
      "inputs": [
        {
          "internalType": "address",
          "name": "account",
          "type": "address"
        }
      ],
      "name": "balanceOf",
      "outputs": [
        {
          "internalType": "uint256",
          "name": "",
          "type": "uint256"
        }
      ],
      "stateMutability": "view",
      "type": "function"
    },
    {
      "inputs": [
        {
          "internalType": "address",
          "name": "account",
          "type": "address"
        },
        {
          "internalType": "uint32",
          "name": "pos",
          "type": "uint32"
        }
      ],
      "name": "checkpoints",
      "outputs": [
        {
          "components": [
            {
              "internalType": "uint32",
              "name": "fromBlock",
              "type": "uint32"
            },
            {
              "internalType": "uint224",
              "name": "votes",
              "type": "uint224"
            }
          ],
          "internalType": "struct ERC20Votes.Checkpoint",
          "name": "",
          "type": "tuple"
        }
      ],
      "stateMutability": "view",
      "type": "function"
    },
    {
      "inputs": [],
      "name": "clock",
      "outputs": [
        {
          "internalType": "uint48",
          "name": "",
          "type": "uint48"
        }
      ],
      "stateMutability": "view",
      "type": "function"
    },
    {
      "inputs": [],
      "name": "decimals",
      "outputs": [
        {
          "internalType": "uint8",
          "name": "",
          "type": "uint8"
        }
      ],
      "stateMutability": "view",
      "type": "function"
    },
    {
      "inputs": [
        {
          "internalType": "address",
          "name": "spender",
          "type": "address"
        },
        {
          "internalType": "uint256",
          "name": "subtractedValue",
          "type": "uint256"
        }
      ],
      "name": "decreaseAllowance",
      "outputs": [
        {
          "internalType": "bool",
          "name": "",
          "type": "bool"
        }
      ],
      "stateMutability": "nonpayable",
      "type": "function"
    },
    {
      "inputs": [
        {
          "internalType": "address",
          "name": "delegatee",
          "type": "address"
        }
      ],
      "name": "delegate",
      "outputs": [],
      "stateMutability": "nonpayable",
      "type": "function"
    },
    {
      "inputs": [
        {
          "internalType": "address",
          "name": "delegatee",
          "type": "address"
        },
        {
          "internalType": "uint256",
          "name": "nonce",
          "type": "uint256"
        },
        {
          "internalType": "uint256",
          "name": "expiry",
          "type": "uint256"
        },
        {
          "internalType": "uint8",
          "name": "v",
          "type": "uint8"
        },
        {
          "internalType": "bytes32",
          "name": "r",
          "type": "bytes32"
        },
        {
          "internalType": "bytes32",
          "name": "s",
          "type": "bytes32"
        }
      ],
      "name": "delegateBySig",
      "outputs": [],
      "stateMutability": "nonpayable",
      "type": "function"
    },
    {
      "inputs": [
        {
          "internalType": "address",
          "name": "account",
          "type": "address"
        }
      ],
      "name": "delegates",
      "outputs": [
        {
          "internalType": "address",
          "name": "",
          "type": "address"
        }
      ],
      "stateMutability": "view",
      "type": "function"
    },
    {
      "inputs": [],
      "name": "eip712Domain",
      "outputs": [
        {
          "internalType": "bytes1",
          "name": "fields",
          "type": "bytes1"
        },
        {
          "internalType": "string",
          "name": "name",
          "type": "string"
        },
        {
          "internalType": "string",
          "name": "version",
          "type": "string"
        },
        {
          "internalType": "uint256",
          "name": "chainId",
          "type": "uint256"
        },
        {
          "internalType": "address",
          "name": "verifyingContract",
          "type": "address"
        },
        {
          "internalType": "bytes32",
          "name": "salt",
          "type": "bytes32"
        },
        {
          "internalType": "uint256[]",
          "name": "extensions",
          "type": "uint256[]"
        }
      ],
      "stateMutability": "view",
      "type": "function"
    },
    {
      "inputs": [
        {
          "internalType": "uint256",
          "name": "timepoint",
          "type": "uint256"
        }
      ],
      "name": "getPastTotalSupply",
      "outputs": [
        {
          "internalType": "uint256",
          "name": "",
          "type": "uint256"
        }
      ],
      "stateMutability": "view",
      "type": "function"
    },
    {
      "inputs": [
        {
          "internalType": "address",
          "name": "account",
          "type": "address"
        },
        {
          "internalType": "uint256",
          "name": "timepoint",
          "type": "uint256"
        }
      ],
      "name": "getPastVotes",
      "outputs": [
        {
          "internalType": "uint256",
          "name": "",
          "type": "uint256"
        }
      ],
      "stateMutability": "view",
      "type": "function"
    },
    {
      "inputs": [
        {
          "internalType": "address",
          "name": "account",
          "type": "address"
        }
      ],
      "name": "getVotes",
      "outputs": [
        {
          "internalType": "uint256",
          "name": "",
          "type": "uint256"
        }
      ],
      "stateMutability": "view",
      "type": "function"
    },
    {
      "inputs": [
        {
          "internalType": "address",
          "name": "spender",
          "type": "address"
        },
        {
          "internalType": "uint256",
          "name": "addedValue",
          "type": "uint256"
        }
      ],
      "name": "increaseAllowance",
      "outputs": [
        {
          "internalType": "bool",
          "name": "",
          "type": "bool"
        }
      ],
      "stateMutability": "nonpayable",
      "type": "function"
    },
    {
      "inputs": [],
      "name": "name",
      "outputs": [
        {
          "internalType": "string",
          "name": "",
          "type": "string"
        }
      ],
      "stateMutability": "view",
      "type": "function"
    },
    {
      "inputs": [
        {
          "internalType": "address",
          "name": "owner",
          "type": "address"
        }
      ],
      "name": "nonces",
      "outputs": [
        {
          "internalType": "uint256",
          "name": "",
          "type": "uint256"
        }
      ],
      "stateMutability": "view",
      "type": "function"
    },
    {
      "inputs": [
        {
          "internalType": "address",
          "name": "account",
          "type": "address"
        }
      ],
      "name": "numCheckpoints",
      "outputs": [
        {
          "internalType": "uint32",
          "name": "",
          "type": "uint32"
        }
      ],
      "stateMutability": "view",
      "type": "function"
    },
    {
      "inputs": [
        {
          "internalType": "address",
          "name": "owner",
          "type": "address"
        },
        {
          "internalType": "address",
          "name": "spender",
          "type": "address"
        },
        {
          "internalType": "uint256",
          "name": "value",
          "type": "uint256"
        },
        {
          "internalType": "uint256",
          "name": "deadline",
          "type": "uint256"
        },
        {
          "internalType": "uint8",
          "name": "v",
          "type": "uint8"
        },
        {
          "internalType": "bytes32",
          "name": "r",
          "type": "bytes32"
        },
        {
          "internalType": "bytes32",
          "name": "s",
          "type": "bytes32"
        }
      ],
      "name": "permit",
      "outputs": [],
      "stateMutability": "nonpayable",
      "type": "function"
    },
    {
      "inputs": [],
      "name": "s_maxSupply",
      "outputs": [
        {
          "internalType": "uint256",
          "name": "",
          "type": "uint256"
        }
      ],
      "stateMutability": "view",
      "type": "function"
    },
    {
      "inputs": [],
      "name": "symbol",
      "outputs": [
        {
          "internalType": "string",
          "name": "",
          "type": "string"
        }
      ],
      "stateMutability": "view",
      "type": "function"
    },
    {
      "inputs": [],
      "name": "totalSupply",
      "outputs": [
        {
          "internalType": "uint256",
          "name": "",
          "type": "uint256"
        }
      ],
      "stateMutability": "view",
      "type": "function"
    },
    {
      "inputs": [
        {
          "internalType": "address",
          "name": "to",
          "type": "address"
        },
        {
          "internalType": "uint256",
          "name": "amount",
          "type": "uint256"
        }
      ],
      "name": "transfer",
      "outputs": [
        {
          "internalType": "bool",
          "name": "",
          "type": "bool"
        }
      ],
      "stateMutability": "nonpayable",
      "type": "function"
    },
    {
      "inputs": [
        {
          "internalType": "address",
          "name": "from",
          "type": "address"
        },
        {
          "internalType": "address",
          "name": "to",
          "type": "address"
        },
        {
          "internalType": "uint256",
          "name": "amount",
          "type": "uint256"
        }
      ],
      "name": "transferFrom",
      "outputs": [
        {
          "internalType": "bool",
          "name": "",
          "type": "bool"
        }
      ],
      "stateMutability": "nonpayable",
      "type": "function"
    }
  ],
  "bytecode": "0x61016060405269d3c21bcecceda1000000600c553480156200002057600080fd5b506040518060400160405280600f81526020016e23b7bb32b93730b731b2aa37b5b2b760891b81525080604051806040016040528060018152602001603160f81b8152506040518060400160405280600f81526020016e23b7bb32b93730b731b2aa37b5b2b760891b8152506040518060400160405280600281526020016111d560f21b8152508160039081620000b8919062000960565b506004620000c7828262000960565b505050620000e5600583620001b060201b62000bd61790919060201c565b6101205262000102816006620001b0602090811b62000bd617901c565b61014052815160208084019190912060e052815190820120610100524660a0526200019060e05161010051604080517f8b73c3c69bb8fe3d512ecc4cf759cc79239f7b179b0ffacaa9a75d522b39400f60208201529081019290925260608201524660808201523060a082015260009060c00160405160208183030381529060405280519060200120905090565b60805250503060c05250600c54620001aa90339062000200565b62000ae3565b6000602083511015620001d057620001c8836200021b565b9050620001fa565b82620001e7836200026760201b62000c071760201c565b90620001f4908262000960565b5060ff90505b92915050565b6200021782826200026a60201b62000c0a1760201c565b5050565b600080829050601f8151111562000252578260405163305a27a960e01b815260040162000249919062000a2c565b60405180910390fd5b80516200025f8262000a7c565b179392505050565b90565b6200028182826200031d60201b62000c9a1760201c565b6001600160e01b0362000295620003ea8216565b1115620002fe5760405162461bcd60e51b815260206004820152603060248201527f4552433230566f7465733a20746f74616c20737570706c79207269736b73206f60448201526f766572666c6f77696e6720766f74657360801b606482015260840162000249565b62000317600b62000d65620003f060201b178362000405565b50505050565b6001600160a01b038216620003755760405162461bcd60e51b815260206004820152601f60248201527f45524332303a206d696e7420746f20746865207a65726f206164647265737300604482015260640162000249565b806002600082825462000389919062000ab7565b90915550506001600160a01b038216600081815260208181526040808320805486019055518481527fddf252ad1be2c89b69c2b068fc378daa952ba7f163c4a11628f55a4df523b3ef910160405180910390a36200021760008383620005b3565b60025490565b6000620003fe828462000ab7565b9392505050565b82546000908190818115620004545760008781526020902082016000190160408051808201909152905463ffffffff8116825264010000000090046001600160e01b0316602082015262000469565b60408051808201909152600080825260208201525b905080602001516001600160e01b031693506200048784868860201c565b9250600082118015620004b457506200049f620005cb565b65ffffffffffff16816000015163ffffffff16145b156200050857620004d083620005e860201b62000d711760201c565b60008881526020902083016000190180546001600160e01b03929092166401000000000263ffffffff909216919091179055620005a4565b8660405180604001604052806200054162000528620005cb60201b60201c565b65ffffffffffff166200065760201b62000dde1760201c565b63ffffffff1681526020016200056286620005e860201b62000d711760201c565b6001600160e01b0390811690915282546001810184556000938452602093849020835194909301519091166401000000000263ffffffff909316929092179101555b5050935093915050565b505050565b620005ae838383620006be60201b62000e431760201c565b6000620005e3436200070a60201b62000e7a1760201c565b905090565b60006001600160e01b03821115620006535760405162461bcd60e51b815260206004820152602760248201527f53616665436173743a2076616c756520646f65736e27742066697420696e20326044820152663234206269747360c81b606482015260840162000249565b5090565b600063ffffffff821115620006535760405162461bcd60e51b815260206004820152602660248201527f53616665436173743a2076616c756520646f65736e27742066697420696e203360448201526532206269747360d01b606482015260840162000249565b620006d6838383620005ae60201b62000e751760201c565b6001600160a01b03838116600090815260096020526040808220548584168352912054620005ae9291821691168362000773565b600065ffffffffffff821115620006535760405162461bcd60e51b815260206004820152602660248201527f53616665436173743a2076616c756520646f65736e27742066697420696e203460448201526538206269747360d01b606482015260840162000249565b816001600160a01b0316836001600160a01b031614158015620007965750600081115b15620005ae576001600160a01b0383161562000823576001600160a01b0383166000908152600a6020908152604082208291620007e09190620008ae901b62000ee1178562000405565b91509150846001600160a01b031660008051602062002d75833981519152838360405162000818929190918252602082015260400190565b60405180910390a250505b6001600160a01b03821615620005ae576001600160a01b0382166000908152600a6020908152604082208291620008679190620003f0901b62000d65178562000405565b91509150836001600160a01b031660008051602062002d7583398151915283836040516200089f929190918252602082015260400190565b60405180910390a25050505050565b6000620003fe828462000acd565b634e487b7160e01b600052604160045260246000fd5b600181811c90821680620008e757607f821691505b6020821081036200090857634e487b7160e01b600052602260045260246000fd5b50919050565b601f821115620005ae57600081815260208120601f850160051c81016020861015620009375750805b601f850160051c820191505b81811015620009585782815560010162000943565b505050505050565b81516001600160401b038111156200097c576200097c620008bc565b62000994816200098d8454620008d2565b846200090e565b602080601f831160018114620009cc5760008415620009b35750858301515b600019600386901b1c1916600185901b17855562000958565b600085815260208120601f198616915b82811015620009fd57888601518255948401946001909101908401620009dc565b508582101562000a1c5787850151600019600388901b60f8161c191681555b5050505050600190811b01905550565b600060208083528351808285015260005b8181101562000a5b5785810183015185820160400152820162000a3d565b506000604082860101526040601f19601f8301168501019250505092915050565b80516020808301519190811015620009085760001960209190910360031b1b16919050565b634e487b7160e01b600052601160045260246000fd5b80820180821115620001fa57620001fa62000aa1565b81810381811115620001fa57620001fa62000aa1565b60805160a05160c05160e05161010051610120516101405161223762000b3e60003960006106b10152600061068601526000611309015260006112e10152600061123c015260006112660152600061129001526122376000f3fe608060405234801561001057600080fd5b506004361061018e5760003560e01c806370a08231116100de5780639ab24eb011610097578063c3cda52011610071578063c3cda52014610392578063d505accf146103a5578063dd62ed3e146103b8578063f1127ed8146103cb57600080fd5b80639ab24eb014610359578063a457c2d71461036c578063a9059cbb1461037f57600080fd5b806370a08231146102c85780637ecebe00146102f157806384b0196e146103045780638e539e8c1461031f57806391ddadf41461033257806395d89b411461035157600080fd5b8063395093511161014b578063587cde1e11610125578063587cde1e1461023e5780635c19a95c146102825780635d641847146102975780636fcfff45146102a057600080fd5b806339509351146102105780633a46b1a8146102235780634bf5d7e91461023657600080fd5b806306fdde0314610193578063095ea7b3146101b157806318160ddd146101d457806323b872dd146101e6578063313ce567146101f95780633644e51514610208575b600080fd5b61019b610408565b6040516101a89190611d40565b60405180910390f35b6101c46101bf366004611d6f565b61049a565b60405190151581526020016101a8565b6002545b6040519081526020016101a8565b6101c46101f4366004611d99565b6104b4565b604051601281526020016101a8565b6101d86104d8565b6101c461021e366004611d6f565b6104e7565b6101d8610231366004611d6f565b610509565b61019b610593565b61026a61024c366004611dd5565b6001600160a01b039081166000908152600960205260409020541690565b6040516001600160a01b0390911681526020016101a8565b610295610290366004611dd5565b61062b565b005b6101d8600c5481565b6102b36102ae366004611dd5565b610638565b60405163ffffffff90911681526020016101a8565b6101d86102d6366004611dd5565b6001600160a01b031660009081526020819052604090205490565b6101d86102ff366004611dd5565b61065a565b61030c610678565b6040516101a89796959493929190611df0565b6101d861032d366004611e86565b610701565b61033a610768565b60405165ffffffffffff90911681526020016101a8565b61019b610773565b6101d8610367366004611dd5565b610782565b6101c461037a366004611d6f565b610804565b6101c461038d366004611d6f565b61087f565b6102956103a0366004611eb0565b61088d565b6102956103b3366004611f08565b6109c3565b6101d86103c6366004611f72565b610b27565b6103de6103d9366004611fa5565b610b52565b60408051825163ffffffff1681526020928301516001600160e01b031692810192909252016101a8565b60606003805461041790611fe5565b80601f016020809104026020016040519081016040528092919081815260200182805461044390611fe5565b80156104905780601f1061046557610100808354040283529160200191610490565b820191906000526020600020905b81548152906001019060200180831161047357829003601f168201915b5050505050905090565b6000336104a8818585610eed565b60019150505b92915050565b6000336104c2858285611011565b6104cd858585611085565b506001949350505050565b60006104e261122f565b905090565b6000336104a88185856104fa8383610b27565b610504919061202f565b610eed565b6000610513610768565b65ffffffffffff16821061056a5760405162461bcd60e51b815260206004820152601960248201527804552433230566f7465733a20667574757265206c6f6f6b757603c1b60448201526064015b60405180910390fd5b6001600160a01b0383166000908152600a6020526040902061058c908361135a565b9392505050565b60604361059e610768565b65ffffffffffff16146105f35760405162461bcd60e51b815260206004820152601d60248201527f4552433230566f7465733a2062726f6b656e20636c6f636b206d6f64650000006044820152606401610561565b5060408051808201909152601d81527f6d6f64653d626c6f636b6e756d6265722666726f6d3d64656661756c74000000602082015290565b6106353382611443565b50565b6001600160a01b0381166000908152600a60205260408120546104ae90610dde565b6001600160a01b0381166000908152600760205260408120546104ae565b6000606080828080836106ac7f000000000000000000000000000000000000000000000000000000000000000060056114bc565b6106d77f000000000000000000000000000000000000000000000000000000000000000060066114bc565b60408051600080825260208201909252600f60f81b9b939a50919850469750309650945092509050565b600061070b610768565b65ffffffffffff16821061075d5760405162461bcd60e51b815260206004820152601960248201527804552433230566f7465733a20667574757265206c6f6f6b757603c1b6044820152606401610561565b6104ae600b8361135a565b60006104e243610e7a565b60606004805461041790611fe5565b6001600160a01b0381166000908152600a602052604081205480156107f1576001600160a01b0383166000908152600a60205260409020805460001983019081106107cf576107cf612058565b60009182526020909120015464010000000090046001600160e01b03166107f4565b60005b6001600160e01b03169392505050565b600033816108128286610b27565b9050838110156108725760405162461bcd60e51b815260206004820152602560248201527f45524332303a2064656372656173656420616c6c6f77616e63652062656c6f77604482015264207a65726f60d81b6064820152608401610561565b6104cd8286868403610eed565b6000336104a8818585611085565b834211156108dd5760405162461bcd60e51b815260206004820152601d60248201527f4552433230566f7465733a207369676e617475726520657870697265640000006044820152606401610561565b604080517fe48329057bfd03d55e49b547132e39cffd9c1820ad7b9d4c5307691425d15adf60208201526001600160a01b0388169181019190915260608101869052608081018590526000906109579061094f9060a00160405160208183030381529060405280519060200120611560565b85858561158d565b9050610962816115b5565b86146109b05760405162461bcd60e51b815260206004820152601960248201527f4552433230566f7465733a20696e76616c6964206e6f6e6365000000000000006044820152606401610561565b6109ba8188611443565b50505050505050565b83421115610a135760405162461bcd60e51b815260206004820152601d60248201527f45524332305065726d69743a206578706972656420646561646c696e650000006044820152606401610561565b60007f6e71edae12b1b97f4d1f60370fef10105fa2faae0126114a169c64845d6126c9888888610a428c6115b5565b6040805160208101969096526001600160a01b0394851690860152929091166060840152608083015260a082015260c0810186905260e0016040516020818303038152906040528051906020012090506000610a9d82611560565b90506000610aad8287878761158d565b9050896001600160a01b0316816001600160a01b031614610b105760405162461bcd60e51b815260206004820152601e60248201527f45524332305065726d69743a20696e76616c6964207369676e617475726500006044820152606401610561565b610b1b8a8a8a610eed565b50505050505050505050565b6001600160a01b03918216600090815260016020908152604080832093909416825291909152205490565b60408051808201909152600080825260208201526001600160a01b0383166000908152600a60205260409020805463ffffffff8416908110610b9657610b96612058565b60009182526020918290206040805180820190915291015463ffffffff8116825264010000000090046001600160e01b0316918101919091529392505050565b6000602083511015610bf257610beb836115dd565b90506104ae565b81610bfd84826120bc565b5060ff90506104ae565b90565b610c148282610c9a565b6002546001600160e01b031015610c865760405162461bcd60e51b815260206004820152603060248201527f4552433230566f7465733a20746f74616c20737570706c79207269736b73206f60448201526f766572666c6f77696e6720766f74657360801b6064820152608401610561565b610c94600b610d658361161b565b50505050565b6001600160a01b038216610cf05760405162461bcd60e51b815260206004820152601f60248201527f45524332303a206d696e7420746f20746865207a65726f2061646472657373006044820152606401610561565b8060026000828254610d02919061202f565b90915550506001600160a01b038216600081815260208181526040808320805486019055518481527fddf252ad1be2c89b69c2b068fc378daa952ba7f163c4a11628f55a4df523b3ef910160405180910390a3610d6160008383611790565b5050565b600061058c828461202f565b60006001600160e01b03821115610dda5760405162461bcd60e51b815260206004820152602760248201527f53616665436173743a2076616c756520646f65736e27742066697420696e20326044820152663234206269747360c81b6064820152608401610561565b5090565b600063ffffffff821115610dda5760405162461bcd60e51b815260206004820152602660248201527f53616665436173743a2076616c756520646f65736e27742066697420696e203360448201526532206269747360d01b6064820152608401610561565b6001600160a01b03838116600090815260096020526040808220548584168352912054610e759291821691168361179b565b505050565b600065ffffffffffff821115610dda5760405162461bcd60e51b815260206004820152602660248201527f53616665436173743a2076616c756520646f65736e27742066697420696e203460448201526538206269747360d01b6064820152608401610561565b600061058c828461217c565b6001600160a01b038316610f4f5760405162461bcd60e51b8152602060048201526024808201527f45524332303a20617070726f76652066726f6d20746865207a65726f206164646044820152637265737360e01b6064820152608401610561565b6001600160a01b038216610fb05760405162461bcd60e51b815260206004820152602260248201527f45524332303a20617070726f766520746f20746865207a65726f206164647265604482015261737360f01b6064820152608401610561565b6001600160a01b0383811660008181526001602090815260408083209487168084529482529182902085905590518481527f8c5be1e5ebec7d5bd14f71427d1e84f3dd0314c0f7b2291e5b200ac8c7c3b925910160405180910390a3505050565b600061101d8484610b27565b90506000198114610c9457818110156110785760405162461bcd60e51b815260206004820152601d60248201527f45524332303a20696e73756666696369656e7420616c6c6f77616e63650000006044820152606401610561565b610c948484848403610eed565b6001600160a01b0383166110e95760405162461bcd60e51b815260206004820152602560248201527f45524332303a207472616e736665722066726f6d20746865207a65726f206164604482015264647265737360d81b6064820152608401610561565b6001600160a01b03821661114b5760405162461bcd60e51b815260206004820152602360248201527f45524332303a207472616e7366657220746f20746865207a65726f206164647260448201526265737360e81b6064820152608401610561565b6001600160a01b038316600090815260208190526040902054818110156111c35760405162461bcd60e51b815260206004820152602660248201527f45524332303a207472616e7366657220616d6f756e7420657863656564732062604482015265616c616e636560d01b6064820152608401610561565b6001600160a01b03848116600081815260208181526040808320878703905593871680835291849020805487019055925185815290927fddf252ad1be2c89b69c2b068fc378daa952ba7f163c4a11628f55a4df523b3ef910160405180910390a3610c94848484611790565b6000306001600160a01b037f00000000000000000000000000000000000000000000000000000000000000001614801561128857507f000000000000000000000000000000000000000000000000000000000000000046145b156112b257507f000000000000000000000000000000000000000000000000000000000000000090565b6104e2604080517f8b73c3c69bb8fe3d512ecc4cf759cc79239f7b179b0ffacaa9a75d522b39400f60208201527f0000000000000000000000000000000000000000000000000000000000000000918101919091527f000000000000000000000000000000000000000000000000000000000000000060608201524660808201523060a082015260009060c00160405160208183030381529060405280519060200120905090565b8154600090818160058111156113b4576000611375846118d8565b61137f908561217c565b600088815260209020909150869082015463ffffffff1611156113a4578091506113b2565b6113af81600161202f565b92505b505b808210156114015760006113c883836119c0565b600088815260209020909150869082015463ffffffff1611156113ed578091506113fb565b6113f881600161202f565b92505b506113b4565b801561142d576000868152602090208101600019015464010000000090046001600160e01b0316611430565b60005b6001600160e01b03169695505050505050565b6001600160a01b038281166000818152600960208181526040808420805485845282862054949093528787166001600160a01b03198416811790915590519190951694919391928592917f3134e8a2e6d97e929a7e54011ea5485d7d196dd5f0ba4d4ef95803e8e3fc257f9190a4610c9482848361179b565b606060ff83146114cf57610beb836119db565b8180546114db90611fe5565b80601f016020809104026020016040519081016040528092919081815260200182805461150790611fe5565b80156115545780601f1061152957610100808354040283529160200191611554565b820191906000526020600020905b81548152906001019060200180831161153757829003601f168201915b505050505090506104ae565b60006104ae61156d61122f565b8360405161190160f01b8152600281019290925260228201526042902090565b600080600061159e87878787611a1a565b915091506115ab81611ade565b5095945050505050565b6001600160a01b03811660009081526007602052604090208054600181018255905b50919050565b600080829050601f81511115611608578260405163305a27a960e01b81526004016105619190611d40565b80516116138261218f565b179392505050565b825460009081908181156116685760008781526020902082016000190160408051808201909152905463ffffffff8116825264010000000090046001600160e01b0316602082015261167d565b60408051808201909152600080825260208201525b905080602001516001600160e01b0316935061169d84868863ffffffff16565b92506000821180156116c757506116b2610768565b65ffffffffffff16816000015163ffffffff16145b1561170c576116d583610d71565b60008881526020902083016000190180546001600160e01b03929092166401000000000263ffffffff909216919091179055611786565b866040518060400160405280611730611723610768565b65ffffffffffff16610dde565b63ffffffff16815260200161174486610d71565b6001600160e01b0390811690915282546001810184556000938452602093849020835194909301519091166401000000000263ffffffff909316929092179101555b5050935093915050565b610e75838383610e43565b816001600160a01b0316836001600160a01b0316141580156117bd5750600081115b15610e75576001600160a01b0383161561184b576001600160a01b0383166000908152600a6020526040812081906117f890610ee18561161b565b91509150846001600160a01b03167fdec2bacdd2f05b59de34da9b523dff8be42e5e38e818c82fdb0bae774387a7248383604051611840929190918252602082015260400190565b60405180910390a250505b6001600160a01b03821615610e75576001600160a01b0382166000908152600a60205260408120819061188190610d658561161b565b91509150836001600160a01b03167fdec2bacdd2f05b59de34da9b523dff8be42e5e38e818c82fdb0bae774387a72483836040516118c9929190918252602082015260400190565b60405180910390a25050505050565b6000816000036118ea57506000919050565b600060016118f784611c28565b901c6001901b90506001818481611910576119106121b3565b048201901c90506001818481611928576119286121b3565b048201901c90506001818481611940576119406121b3565b048201901c90506001818481611958576119586121b3565b048201901c90506001818481611970576119706121b3565b048201901c90506001818481611988576119886121b3565b048201901c905060018184816119a0576119a06121b3565b048201901c905061058c818285816119ba576119ba6121b3565b04611cbc565b60006119cf60028484186121c9565b61058c9084841661202f565b606060006119e883611cd2565b604080516020808252818301909252919250600091906020820181803683375050509182525060208101929092525090565b6000807f7fffffffffffffffffffffffffffffff5d576e7357a4501ddfe92f46681b20a0831115611a515750600090506003611ad5565b6040805160008082526020820180845289905260ff881692820192909252606081018690526080810185905260019060a0016020604051602081039080840390855afa158015611aa5573d6000803e3d6000fd5b5050604051601f1901519150506001600160a01b038116611ace57600060019250925050611ad5565b9150600090505b94509492505050565b6000816004811115611af257611af26121eb565b03611afa5750565b6001816004811115611b0e57611b0e6121eb565b03611b5b5760405162461bcd60e51b815260206004820152601860248201527f45434453413a20696e76616c6964207369676e617475726500000000000000006044820152606401610561565b6002816004811115611b6f57611b6f6121eb565b03611bbc5760405162461bcd60e51b815260206004820152601f60248201527f45434453413a20696e76616c6964207369676e6174757265206c656e677468006044820152606401610561565b6003816004811115611bd057611bd06121eb565b036106355760405162461bcd60e51b815260206004820152602260248201527f45434453413a20696e76616c6964207369676e6174757265202773272076616c604482015261756560f01b6064820152608401610561565b600080608083901c15611c3d57608092831c92015b604083901c15611c4f57604092831c92015b602083901c15611c6157602092831c92015b601083901c15611c7357601092831c92015b600883901c15611c8557600892831c92015b600483901c15611c9757600492831c92015b600283901c15611ca957600292831c92015b600183901c156104ae5760010192915050565b6000818310611ccb578161058c565b5090919050565b600060ff8216601f8111156104ae57604051632cd44ac360e21b815260040160405180910390fd5b6000815180845260005b81811015611d2057602081850181015186830182015201611d04565b506000602082860101526020601f19601f83011685010191505092915050565b60208152600061058c6020830184611cfa565b80356001600160a01b0381168114611d6a57600080fd5b919050565b60008060408385031215611d8257600080fd5b611d8b83611d53565b946020939093013593505050565b600080600060608486031215611dae57600080fd5b611db784611d53565b9250611dc560208501611d53565b9150604084013590509250925092565b600060208284031215611de757600080fd5b61058c82611d53565b60ff60f81b881681526000602060e081840152611e1060e084018a611cfa565b8381036040850152611e22818a611cfa565b606085018990526001600160a01b038816608086015260a0850187905284810360c0860152855180825283870192509083019060005b81811015611e7457835183529284019291840191600101611e58565b50909c9b505050505050505050505050565b600060208284031215611e9857600080fd5b5035919050565b803560ff81168114611d6a57600080fd5b60008060008060008060c08789031215611ec957600080fd5b611ed287611d53565b95506020870135945060408701359350611eee60608801611e9f565b92506080870135915060a087013590509295509295509295565b600080600080600080600060e0888a031215611f2357600080fd5b611f2c88611d53565b9650611f3a60208901611d53565b95506040880135945060608801359350611f5660808901611e9f565b925060a0880135915060c0880135905092959891949750929550565b60008060408385031215611f8557600080fd5b611f8e83611d53565b9150611f9c60208401611d53565b90509250929050565b60008060408385031215611fb857600080fd5b611fc183611d53565b9150602083013563ffffffff81168114611fda57600080fd5b809150509250929050565b600181811c90821680611ff957607f821691505b6020821081036115d757634e487b7160e01b600052602260045260246000fd5b634e487b7160e01b600052601160045260246000fd5b808201808211156104ae576104ae612019565b634e487b7160e01b600052604160045260246000fd5b634e487b7160e01b600052603260045260246000fd5b601f821115610e7557600081815260208120601f850160051c810160208610156120955750805b601f850160051c820191505b818110156120b4578281556001016120a1565b505050505050565b815167ffffffffffffffff8111156120d6576120d6612042565b6120ea816120e48454611fe5565b8461206e565b602080601f83116001811461211f57600084156121075750858301515b600019600386901b1c1916600185901b1785556120b4565b600085815260208120601f198616915b8281101561214e5788860151825594840194600190910190840161212f565b508582101561216c5787850151600019600388901b60f8161c191681555b5050505050600190811b01905550565b818103818111156104ae576104ae612019565b805160208083015191908110156115d75760001960209190910360031b1b16919050565b634e487b7160e01b600052601260045260246000fd5b6000826121e657634e487b7160e01b600052601260045260246000fd5b500490565b634e487b7160e01b600052602160045260246000fdfea2646970667358221220056914c9cb09ae3ed25e2071d790868d6830426bb56a1de393ebd1f2376d271d64736f6c63430008120033dec2bacdd2f05b59de34da9b523dff8be42e5e38e818c82fdb0bae774387a724",
  "linkReferences": {},
  "deployedLinkReferences": {}
}